:020000040800F2
:1000000000000120091A00083518000839180008F6
:100010003D180008411800084518000800000000BD
:10002000000000000000000000000000B1640008B3
:10003000491800080000000041650008C9370008A1
:10004000591A0008591A0008591A0008591A0008C4
:10005000591A0008591A0008591A0008591A0008B4
:10006000591A0008591A0008591A0008591A0008A4
:10007000591A0008591A0008591A0008591A000894
:10008000591A0008591A0008591A000800000000FF
:100090000000000000000000000000004D180008F3
:1000A000A5180008DD180008FD180008591A0008F6
:1000B0001D190008591A0008591A0008591A000891
:1000C000591A0008591A0008591A0008591A000844
:1000D000591A000829190008351900080000000005
:1000E00041190008591A0008591A000800000000B8
:1000F000000000000000000000000000591A000885
:1001000000000000591A0008B1190008591A000827
:1001100000000000000000000000000000000000DF
:10012000591A0008591A0008591A0008591A0008E3
:10013000591A000800000000000000000000000044
:10014000000000000000000000000000591A000834
:10015000591A0008D1190008DD190008E91900082A
:10016000591A0008591A0008000000000000000099
:10017000000000000000000000000000000000007F
:1001800000000000591A00080000000000000000F4
:04019000591A0008F0
:1001A00010B5054C237833B9044B13B10448AFF3B1
:1001B00000800123237010BD6000002000000000BB
:1001C000C46B000808B5034B1BB103490348AFF3E8
:1001D000008008BD0000000064000020C46B00081F
:1001E00053B94AB9002908BF00281CBF4FF0FF319E
:1001F0004FF0FF3000F088B9ADF1080C6DE904CE86
:1002000000F006F8DDF804E0DDE9022304B07047F1
:100210002DE9F047089D8E4604468846002B4AD1BA
:100220008A42174662D9B2FA82F64EB1C6F120036D
:1002300001FA06F820FA03F3B74043EA0808B4408D
:100240004FEA174E1FFA87FCB8FBFEF1230C0EFB9A
:10025000118843EA084301FB0CF29A4209D9FB18C2
:1002600001F1FF3080F0EA809A4240F2E7800239E3
:100270003B449A1AA3B2B2FBFEF00EFB102243EAF3
:10028000024300FB0CFC9C4509D9FB1800F1FF322E
:1002900080F0D6809C4540F2D3803B44023840EA4F
:1002A0000140A3EB0C0300211DB1F3400022C5E97E
:1002B0000032BDE8F0878B4205D90DB1C5E90001D8
:1002C00000210846F5E7B3FA83F1002946D17345CA
:1002D00002D3824200F20581841A6EEB03020120F0
:1002E0009046002DE5D0C5E90048E2E7002A00F07D
:1002F0009080B2FA82F6002E40F0A4808A1A030C95
:100300004FEA174E80B2BCB20121B2FBFEFC0EFBDD
:100310001C2243EA024304FB0CF29A4207D9FB1861
:100320000CF1FF3802D29A4200F2E080C4469B1AD8
:10033000B3FBFEF20EFB123340EA034302FB04F46C
:100340009C4207D9FB1802F1FF3002D29C4200F216
:10035000CA8002461B1B42EA0C40A5E7C1F12006F9
:100360008B4022FA06F71F430EFA01F420FA06F337
:100370002EFA06FE4FEA1749234300FA01F81FFA46
:1003800087FCBEFBF9F01C0C09FB10EE44EA0E449E
:1003900000FB0CFEA64502FA01F209D93C1900F156
:1003A000FF3A80F09C80A64540F2998002383C4498
:1003B000A4EB0E041FFA83FEB4FBF9F309FB13440C
:1003C0004EEA044403FB0CFCA44508D93C1903F194
:1003D000FF3E80F08280A4457FD9023B3C4443EA43
:1003E0000040A4EB0C04A0FB02EC64457346E1461C
:1003F00062D35FD05DB1B8EB030264EB090404FA89
:1004000006F622FA01F31E43CC40C5E90064002140
:100410004FE7B1FBF2FC010C41EA0E4180B240EA29
:1004200001423B4638463C46B846BE462026B1FB14
:10043000F7F1A2EB080241EA0C4166E7014618E732
:1004400010462CE7C6F120022EFA02F3B740B14065
:1004500020FA02F24FEA174E0A43B3FBFEF8BCB291
:100460000EFB1833110C41EA034108FB04F9B040BC
:1004700089454FEA104380B23ED9791808F1FF3C14
:1004800001D289451FD8A1EB0901B1FBFEF909FB97
:1004900004F80EFB191192B242EA0142424529D2F8
:1004A000BA1809F1FF31C4D24245C2D2A9F1020102
:1004B0003A44BEE7F0459DD2BEEB02036CEB070C5D
:1004C0000138E14696E7A7EB09094944A8F1020C77
:1004D000B1FBFEF909FB04F8DBE773467FE7504602
:1004E00066E70846FDE63B44023A33E7ACF1020C0E
:1004F0003B441CE749469CE7A1EB0901C446B1FB1C
:10050000FEF909FB04F8C4E7704700BF2DE9F84F76
:10051000DFF81493B74BB84ADFF810B30024022178
:1005200040204FF0080C102501274FF020084FF015
:100530000C0E89F801C089F807C089F80DC089F848
:1005400016C089F8004089F8021089F8030089F87C
:10055000044089F8064089F8081089F8090089F8EC
:100560000A4089F80B1089F80C4089F80E1089F8B8
:100570000F0089F8104089F8124089F8141089F8A2
:10058000150089F8174089F8184089F81A1089F879
:100590001B0089F81C1089F81D4089F81E4089F855
:1005A000135089F8195089F81F506FF07F0A89F8A5
:1005B000058089F835C089F8117089F8201089F80C
:1005C000210089F8227089F8234089F8244089F8AD
:1005D000255089F8261089F8270089F8284089F8DD
:1005E000298089F82A4089F82B5089F82C1089F83D
:1005F0002D0089F82E4089F82F5089F8304089F86D
:10060000315089F8321089F8330089F834404FF0BE
:10061000040983F801C083F807C01C709970D87072
:100620005C719C7119725872997283F80DC083F8CD
:1006300013C083F81FC083F822C083F80490DC72D3
:100640001C739973D8731F745C749C7419755875F6
:1006500083F81680DC751C765D769976D8761C77E3
:100660009C7783F8201083F8210083F8234083F8D7
:10067000244083F8255083F8261083F8270083F858
:10068000294083F82A4083F82B5083F81DA083F873
:1006900037E083F83DE083F843E083F83BC083F81C
:1006A00028A083F82C1083F82D0083F82E4083F8BF
:1006B0002F7083F8304083F8315083F8321083F87C
:1006C000330083F8344083F8351083F8364083F8DC
:1006D000381083F8390083F83A4083F83C4083F8B7
:1006E0003E1083F83F0083F8404083F8415083F880
:1006F000424083F8441083F8450083F8464083F86D
:1007000047803E4B82F801E01F2614709170D07034
:1007100082F807E082F80DE082F813E082F819E031
:1007200082F81FE082F825E082F816C01771547134
:1007300082F8109082F82280947111725072917236
:10074000D47214739173D07354749474117550757A
:10075000D47514769176D07615775477947782F89D
:10076000201082F8210082F823408BF800401C7092
:10077000234B82F8244082F8261082F8270082F862
:10078000280082F82940214632461E481C7006F097
:1007900029F9324621461C4806F024F93246214602
:1007A0001A4806F01FF932462146194806F01AF990
:1007B00032462146174806F015F9214632461648BA
:1007C00006F010F9154B164A164814701C7004F107
:1007D000804404F5043402F06FF93A462946204675
:1007E00001F086FD3A4620464FF48061BDE8F84F9F
:1007F00001F07EBD780100204C0100207D0000202A
:100800007C0000202001002000010020E0000020EA
:10081000C0000020A000002080000020480100202F
:100820004901002040040020C00100207E0000207B
:1008300010B51F24224600210E4806F0D3F82246A8
:1008400000210D4806F0CEF8224600210B4806F0A4
:10085000C9F8224600210A4806F0C4F822460021C1
:10086000084806F0BFF822460748BDE810400021BE
:1008700006F0B8B82001002000010020E0000020B0
:10088000C0000020A00000208000002070B50A4EAB
:100890000A4D002404EB440306EB430256F8130010
:1008A000918801F01FFD2B78A040013403430C2CEC
:1008B0002B70EFD170BD00BF780100204B010020EC
:1008C00003686FF00102002159621A611A617047D2
:1008D00008B502468021074801F00AFD0648036872
:1008E0006FF00102002159621A611A61BDE80840E7
:1008F00002F0E2B8000C02408804002010B4064860
:10090000064C0749074A0023237003800B701370BD
:100910005DF8044B704700BF4001002042010020F9
:10092000440100204301002010B5154B1B78A3B1F2
:10093000144C237803B910BD13484FF4804101F0E3
:10094000D1FC0128F7D110484FF4004101F0CAFC56
:10095000012804BF0023237010BD0B484FF48041D1
:1009600001F0C0FC0028E3D107484FF4004101F03A
:10097000B9FC0028DCD1034B01221A7010BD00BF66
:10098000420100204A010020000C0240074A03688F
:10099000934203D0064A934204D07047054B18682F
:1009A00003F088B9044B186803F084B900100140C3
:1009B00000140140F8010020FC0100202DE9F04165
:1009C000454C464D2378DBB2EB5C22781D2A21D8BA
:1009D000434F3A78012AD6B237D0022EDBB227D065
:1009E000FEB9132B3F4B68D01B7802223A70002BC4
:1009F00054D13D48FFF764FF3B4802F05DF823788F
:100A00003A4801221344DBB22370E918BDE8F041F3
:100A100002F096BB364BBDE8F0411868022102F0A7
:100A200053BF344BBDE8F0411868022102F04CBFBF
:100A30000D2B1CD023782D480133DBB22370E9182D
:100A40000122BDE8F04102F07BBB274802F066F8C6
:100A50002378284A0133DBB22370AB77002323705D
:100A60003B7031461068BDE8F04102F02DBF1E48D2
:100A70001C4E02F053F823780133DBB22370AB77BE
:100A800033784FF0000884F800805BB93B70194B55
:100A9000BDE8F0411868012102F016BF164802F0C7
:100AA0003DF8A6E71048FFF70BFF0F4802F004F8E7
:100AB00001233B7086F80080E9E701271F70237847
:100AC0000D483B44DBB22370AB772670FFF7F8FE8E
:100AD000094801F0F1FFDAE7480100202001002079
:100AE0007E000020F6010020F8030020D80200203C
:100AF0001002002014020020B003002010B5224C88
:100B000023781D2B32D82378002B36D023781F4929
:100B1000DBB2CA5C0B78413BDBB2142BD2B225D8D6
:100B20001B4820FA03F3DB0720D50D2A194B04BF1D
:100B300001221A701A7872B100221A7023781648AE
:100B40000133DBB223708B772270BDE81040006860
:100B5000012102F0B9BE237810480133DBB22370C3
:100B6000BDE810400122194402F0EABA0A4BBDE880
:100B700010401868022102F0A7BE0948FFF7A0FE46
:100B8000074801F099FFC1E749010020A0000020BB
:100B900003341700470100201002002068030020E2
:100BA000F8030020054A0368934203D0044A9342A5
:100BB00002D07047FFF702BFFFF7A0BF001401404B
:100BC0000010014008B590F84130202B01D00120E1
:100BD00008BD02F0DDFAB0FA80F0400908BD00BFA0
:100BE000F8B5144D144C154F154E284602F00CFB69
:100BF000204602F009FB134A00231370124A1370B7
:100C0000124A39461370284664231E2202F0BAF9AC
:100C1000642331461E22204602F0B4F939460122EF
:100C2000284602F08DFA314620460122BDE8F84000
:100C300002F086BA68030020D8020020A00000203D
:100C40002001002049010020480100207E000020F2
:100C50002DE9F8431D4EDFF884801D4FDFF88090AA
:100C60004FF0FF320021032002F06AFE0128044603
:100C700006D00228F4D1FFF7B3FFFFF7D9FDEFE765
:100C800005F028FCB57FEDB231462A46384605F01E
:100C900035FF05F041FCD8F800004FF0FF3102F0BD
:100CA000D7FF0028DCD12A4639464846FFF78AFF9D
:100CB0000346224607483146002BDCD002F040FABA
:100CC00005492246484602F03BFAC9E720010020C8
:100CD00080000020D8020020A0000020F8010020A1
:100CE000680300202DE9F0411E4DDFF890801E4F73
:100CF0001E4E4FF0FF320021032002F021FE82073A
:100D000004D5FFF76DFFFFF793FDF2E7C307F0D5BA
:100D1000384601F003FF05F0DDFBAC7FE4B2294665
:100D20002246304605F0EAFE05F0F6FBD8F8000052
:100D30004FF0FF3102F08CFF0028DAD12246314615
:100D40000B48FFF73FFF03460A4909480122002BE1
:100D5000D7D002F0F5F901222946074802F0F0F950
:100D6000C7E700BFA0000020F8030020000100201A
:100D7000D80200202001002068030020FC01002090
:100D800008B5FFF783FDFFF7CFFD012002F05CFE01
:100D9000F7E700BF2DE988481B4C1C4EDFF87C802C
:100DA000DFF87CB01A4F1B4D4FF001094FF0FF31B7
:100DB000012004F0F3FE20684FF0FF3102F0A2FEA4
:100DC0000028F3D14FF48041284601F08BFAA0B9F6
:100DD000337873B998F80030012003F0FF0A43B963
:100DE00086F800908BF80090FFF772FD0A4BA3F88D
:100DF00000A0206802F0AAFED8E73B78002BF8D0CC
:100E0000FFF77CFDF5E700BF000200204301002052
:100E100044010020000C0240400100204601002057
:100E20004201002080B5144C144D154E154F4FF063
:100E300001084FF0FF31012004F0B0FE20684FF0B0
:100E4000FF3102F05FFE90B92B7883B9337873B12C
:100E50003B889BB2022B0AD93B889BB2B3F5FA7F41
:100E60004FF0010003D885F80080FFF731FD2068BE
:100E700002F06CFEDDE700BF00020020440100200C
:100E8000420100204001002010B5002394B0CDE9BC
:100E90000A33CDE90C33CDE90333CDE905332149DC
:100EA00001930793086C204A40F080500864096C55
:100EB00001F08051019101990293136823F440439A
:100EC00043F400431360136801204FF4803103F4AE
:100ED0004043CDE9080102934FF480010224CDE99B
:100EE0000E41029804210220CDE91201042254236C
:100EF00008A81092119301F00DFA08B172B6FEE73E
:100F00000F210346CDE903144FF4805203A8214674
:100F1000CDE90532079301F013FC08B172B6FEE784
:100F200014B010BD003802400070004080B50024AD
:100F300090B000F093FDFFF7A7FFCDE90A44CDE99B
:100F40000C44B84D02940E942B6BB74843F0100339
:100F50002B632B6B03F010030293029B03942B6B08
:100F600043F004032B632B6B03F004030393039BF5
:100F700004942B6B43F080032B632B6B03F08003F3
:100F80000493049B05942B6B43F001032B632B6BA1
:100F900003F001030593059B06942B6B43F00203BA
:100FA0002B632B6B03F002030693069B07942B6BBA
:100FB00043F008032B632B6B03F0080322460793CF
:100FC00043F61B01079B01F093F9984822464FF422
:100FD0000C5101F08DF99648224640F2011101F0C2
:100FE00087F994482246012101F082F98E480122B6
:100FF0004FF4806101F07CF922468F4840F2FF51A6
:1010000001F076F9012643F61B4387480AA9CDE98A
:101010000A36CDE90C4400F0ADFF4FF40C53834881
:101020000A930AA9CDE90B640D9400F0A3FF2F22C7
:1010300000237E480C940AA9CDE90A2300F09AFF08
:1010400040F201137A480A930AA9CDE90B640D9482
:1010500000F090FF1022002375480C940AA9CDE9F6
:101060000A2300F087FF73480AA9CDE90A66CDE993
:101070000C4400F07FFF40F2026200236D480C94A4
:101080000AA9CDE90A2300F075FF4CF28032002353
:1010900065480C940AA9CDE90A2300F06BFF40F2E1
:1010A000FF5365480A930AA9CDE90B640D9400F03B
:1010B00061FF4FF4605200235F480C940AA9CDE908
:1010C0000A2300F057FF4FF440424FF444135A48AC
:1010D0000C940AA9CDE90A2300F04CFF4FF4441305
:1010E0004FF4907253480C940AA9CDE90A2300F0FA
:1010F00041FF22460521172000F0EEFC172000F0EA
:1011000027FD22460521282000F0E6FC282000F0DB
:101110001FFD01942B6B43F480032B632B6B03F4B3
:1011200080030521224645200193019B00F0D4FC59
:10113000452000F00DFD22460521462000F0CCFCA4
:10114000462000F005FD3D483D4A4FF48273C0E95A
:10115000002328234FF40072C0E906230A23C0E9C4
:101160000244C0E90444C0E90844C0E90A4301F06C
:10117000C7FB08B172B6FEE70346324932484FF466
:1011800096420C24C0E90233C0E90434C0E90633B6
:10119000C0E9001201F064FE034608B172B6FEE732
:1011A0002A482B4A4FF4E135C0E90233C0E9043440
:1011B000C0E90633C0E9002501F052FE034670B9CC
:1011C0002448C0E90153C0E90333C0E90543C361C2
:1011D000214B036001F044FE18B172B6FEE772B60F
:1011E000FEE71E4C1E4BA0605327CDE90A00CDE957
:1011F0000C00C4E900372061802640F2E733204626
:10120000A661E36001F0DEFB08B172B6FEE74FF4C1
:10121000805520460AA90A9501F098FC034608B3B8
:1012200072B6FEE70038024000100240000802409B
:101230000000024000040240000C0240D0040020E4
:101240000038004000100140680300202003002007
:1012500000440040D8020020001401404004002057
:10126000004001404B4CA36023614B4B2360CDE910
:101270000A00CDE90C00CDE9080063232046676031
:10128000A661E36001F09EFB08B172B6FEE70AA911
:1012900020460A9501F05AFC08B172B6FEE7002319
:1012A000002208A92046CDE9082301F09DFD034650
:1012B00008B172B6FEE73948394C03614FF45271F8
:1012C00042F21072C0E90041C0E90232836101F0CC
:1012D00079FB08B172B6FEE73248334C002342F284
:1012E000D0014CF25032C0E90041C0E90232036142
:1012F000836101F067FB044608B172B6FEE7FFF7B1
:1013000005F9FFF795FA29492948012201F018FF4C
:1013100028492948012201F013FF02F063FA274807
:1013200002F0A0FB264B274A18600121084602F074
:101330002FFC254B254A18600121084602F028FCA5
:10134000234B244A18602146234802F077FA234BA6
:10135000234A18602146234802F070FA224B234AA0
:1013600018602146224802F069FA224B224A18608E
:101370002146224802F062FA214B224A05462146C4
:1013800021481D6002F05AFA204B186002F03CFA26
:10139000FEE700BF88040020000C0040F803002096
:1013A00000440140B003002000480140A00000209C
:1013B0006803002020010020D8020020786C00087B
:1013C00000020020686C0008FC010020586C000836
:1013D000F8010020186D0008510C000814020020CC
:1013E000F46C0008E50C000810020020D06C000826
:1013F000810D00080C020020AC6C0008950D00085F
:1014000008020020886C0008250E00080402002055
:101410000368B3F1804F00D0704700F039BB00BFC4
:1014200072B6FEE782B00E4B00220092596C41F476
:1014300080415964586C00F48040009000980192FB
:10144000186C40F0805018641B6C03F080530193BB
:10145000019B0F216FF0010002B000F03DBB00BF07
:10146000003802400000000010B51B4A016888B037
:1014700000239142CDE90233CDE90433069301D034
:1014800008B010BD02F500320093106C40F48040AB
:101490001064106C00F48040009000980193136B6E
:1014A0000E4843F002031363136B9FED097B03F0B7
:1014B000020301930322052302A98DED027BCDE9EE
:1014C0000523019C00F056FD08B010BDAFF300806D
:1014D00000E000000200000000380040000402406C
:1014E00000B5344A0368934285B021D0324A934212
:1014F00034D0324A934247D0314A934202D005B0A9
:101500005DF804FB2F4B00220392596C41F48021BB
:1015100059645B6C03F48023039305211A20039B19
:1015200000F0DAFA1A2005B05DF804EB00F010BB09
:10153000244B00220092196C41F0080119641B6CC5
:1015400003F00803009305213220009B00F0C4FA49
:10155000322005B05DF804EB00F0FABA194B002216
:101560000192596C41F4803159645B6C03F480330F
:10157000019305211820019B00F0AEFA182005B058
:101580005DF804EB00F0E4BA0E4B00220292596CB5
:1015900041F4003159645B6C03F40033029305217C
:1015A0001920029B00F098FA192005B05DF804EBB1
:1015B00000F0CEBA000C0040004001400044014061
:1015C000004801400038024070B50368664A8CB09C
:1015D00000249342CDE90644CDE9084405460A9427
:1015E00007D0624A934248D0614A934270D00CB00F
:1015F00070BD604B00945A6C5F4E42F010025A640A
:101600005A6C02F010020092009A01941A6B42F098
:1016100001021A631B6B03F0010301934FF4C062D4
:101620000223CDE90623019854480322072306A983
:10163000CDE9092300F09EFC514A74624FF000632B
:10164000C6E90023304640224FF48063C6E90224F5
:10165000C6E90544C6E90744336100F087FA00286B
:1016600078D1AE63002205212520B56300F034FA5D
:10167000252000F06DFA0CB070BD3E4B02941A6C40
:101680003E4842F400321A641A6C02F400320292AC
:10169000029A03941A6B42F001021A631B6B9FEDCE
:1016A000307B03F00103039306A907230322CDE94E
:1016B00009238DED067B039D00F05CFC224605218D
:1016C000262000F009FA262000F042FA0CB070BD86
:1016D000284B04945A6C2B4E42F020025A645A6CE8
:1016E00002F020020492049A05941A6B42F004025C
:1016F0001A631B6B03F004030593C0220223CDE998
:101700000623059820480322082306A9CDE90923CA
:1017100000F030FC1D4A74624FF02063C6E90023DC
:10172000304640224FF48063C6E90224C6E90544EE
:10173000C6E90744336100F019FA70B9AE630022BC
:1017400005214720B56300F0C7F9472000F000FAF3
:101750000CB070BDFFF764FE83E7FFF761FEEDE7B5
:101760000C00000002000000001001400044004096
:1017700000140140003802407802002000000240BE
:10178000B86402401802002000080240A064024031
:1017900070B588B0234B002202921A6C42F001020D
:1017A0001A641B6C03F001030293054601A903A808
:1017B000029B01F083F8069BDBB901F05FF803465A
:1017C000194A1A4CA2FB03239B0C4FF08041013BAA
:1017D0000022C4E90013204640F2E7332261A260F0
:1017E000A261E36001F0EEF8064630B1304608B081
:1017F00070BD01F043F84300E2E7204601F05CF9D8
:1018000006460028F2D11C2000F0A2F90F2D01D9C4
:101810000126EBE7324629461C2000F05DF9044B17
:101820001D60E3E70038024083DE1B4328050020EB
:1018300008000020FEE700BFFEE700BFFEE700BF94
:10184000FEE700BFFEE700BF704700BF114B10B5B9
:101850005C69E2050AD4A30614D4202000F04EFDF2
:10186000BDE810404FF4807000F048BD0A484FF4C6
:10187000807100F037FD094BB0FA80F04009187014
:10188000A306EAD50448202100F02CFD044B187073
:10189000E3E700BF003C0140000402404601002095
:1018A0004501002008B50A4801F002FA094B1B78EF
:1018B0004BB1094A138801339BB2138013889BB242
:1018C000B3F57A7F00D208BDBDE80840FFF716B82F
:1018D00040040020420100204001002008B50548D6
:1018E00001F0E6F9044B02211868BDE8084001F058
:1018F000EBBF00BFF80300201002002008B5054828
:1019000001F0D6F9044B02211868BDE8084001F047
:10191000DBBF00BFB003002010020020014801F02F
:10192000C7B900BF28050020014801F09BBD00BFDA
:1019300068030020014801F095BD00BF200300208E
:1019400000B5184B83B05B690093009B00220192A5
:101950005A0420D4009B1B0417D400BF4FF48040CE
:1019600000F0CCFC4FF4004000F0C8FC019B4BB1F0
:101970004FF0E0234FF08052C3F8042DBFF34F8F98
:10198000BFF36F8F03B05DF804FB074B01A9186824
:1019900004F0EEFAE2E7054B01A9186804F0E8FA52
:1019A000DCE700BF003C01400402002008020020E8
:1019B00010B5064C0020FEF78BFF204601F078F9A9
:1019C0002046BDE8104001F0A9B800BF88040020FF
:1019D000014800F0F7B900BF18020020014800F0EC
:1019E000F1B900BF78020020014801F03BBD00BF03
:1019F000D8020020034AD2F8883043F47003C2F8BA
:101A00008830704700ED00E0DFF834D0FFF7F2FFD8
:101A10000C480D490D4A002302E0D458C450043349
:101A2000C4188C42F9D30A4A0A4C002301E013601F
:101A30000432A242FBD305F03BF8FFF777FA704778
:101A40000000012000000020600000206C6D0008F4
:101A50006000002098500020FEE7000008B50B4B06
:101A60001A6842F400721A601A6842F480621A60BE
:101A70001A6842F480721A60032000F01BF80F20ED
:101A8000FFF786FEFFF7CEFC002008BD003C0240B9
:101A9000034A044B11681B780B441360704700BF66
:101AA0007005002004000020014B1868704700BF3B
:101AB000700500200749CA6803024FF6FF0003F4CF
:101AC000E0630240134343F0BF6343F40033CB6051
:101AD000704700BF00ED00E01B4BDB68C3F302233F
:101AE00000B5C3F1070EBEF1040F03F1040C28BFCB
:101AF0004FF0040EBCF1060F1CD9A3F1030C4FF0FC
:101B0000FF3303FA0CF322EA03024FF0FF3303FA28
:101B10000EF321EA030303FA0CF313431B0100281D
:101B2000DBB20ADB00F1604000F5614080F8003371
:101B30005DF804FB00229446E7E7044A00F00F003A
:101B4000024413765DF804FB00ED00E0FCEC00E0DD
:101B5000002807DB044A4109012300F01F008340ED
:101B600042F82130704700BF00E100E038B504467C
:101B7000FFF79AFF002C6DD023680022022184F821
:101B8000351084F834201A6822F0010205461A60E4
:101B900005E0FFF789FF431B052B37D823681A6838
:101BA000D107F6D4D4E90120E16802430A43D4E91D
:101BB0000451A0692A430A43E1691D6802430A43AC
:101BC00031492940256A2A430A43616A042924D0FD
:101BD0001A605A6922F007021143D8B22B4A5961A0
:101BE0001038A2FB0052120929496FF30903895CDE
:101BF000E1655F2888BF04333F228A40A365002047
:101C00009A600123606584F8353038BD03232022B3
:101C1000626584F83530184638BDD4E90B51294344
:101C2000114319605969A26A21F00701114341F07B
:101C30000401002DD1D078B1B0F5005F16D0022A92
:101C400003D9032AC9D1EA01C7D54022012362651D
:101C500084F83530012038BD012A03D032F0020269
:101C6000BBD1F0E7B5F1C07FB7D1EEE7032AB4D816
:101C700001A050F822F000BF4B1C0008471C0008D0
:101C80004B1C0008651C00083F8010F0ABAAAAAAF4
:101C9000546D000870B490F83440856D012C0AD062
:101CA00090F835404FF0010C644580F834C005D001
:101CB000002380F83430022070BC7047022680F880
:101CC0003560046800264665266826F4802626606E
:101CD00063608368402B0EBFA260A160E260C26DAA
:101CE00008BFE1603F239340AB602368026C43F080
:101CF000160323601AB1236843F0080323602368A6
:101D000043F001030020236070BC704770B50446A7
:101D1000866DFFF7C9FE94F83530022B06D080237C
:101D20006365002384F83430012070BD23681A688D
:101D300022F016021A605A6922F080025A61226C5F
:101D4000054642B31A6822F008021A601A6822F0A7
:101D500001021A6005E0FFF7A7FE431B052B10D810
:101D600023681B6813F00103F5D1E16D3F228A401F
:101D7000184601210023B26084F8351084F834300D
:101D800070BD032320226265184684F83530002395
:101D900084F8343070BDA26C002AD3D1D6E700BFDE
:101DA00090F83530022B03D0802343650120704723
:101DB0000268052380F83530136823F00103002002
:101DC00013607047F0B583B0674A876D16680023CB
:101DD0000193C36D3D6808229A402A42044603D00D
:101DE00001680868400778D401229A402A4203D04B
:101DF0002168496908066AD404229A402A4203D01D
:101E00002168096889075CD410229A402A4203D0CD
:101E100021680868000741D420229A402A4214D041
:101E200021680868C00610D5BA6094F83520052AE4
:101E300063D00B6813F4802F0B687ED0190340F138
:101E40008980E36B0BB120469847636D23B3636DC4
:101E5000DA071AD522684549052384F83530136816
:101E6000A1FB061623F00103B60A136002E0136813
:101E7000DB0704D5019B0133B3420193F7D901225B
:101E8000002384F8352084F83430E36C23B12046F5
:101E900003B0BDE8F040184703B0F0BDBA600A686F
:101EA00012F4802F0A6822D1D20503D40A6822F0E6
:101EB00008020A60226C002AAED020469047E36DEB
:101EC000AAE7BA60626D42F0040262659CE7BA60FC
:101ED000626D42F0020262658EE7086820F004003D
:101EE0000860BA60626D42F0010262657CE711032E
:101EF000E0D5A26C002AE0D18EE70A6822F0160233
:101F00000A604A6922F080024A61226C3AB30A6888
:101F100022F008020A603F2202FA03F3216DBB603F
:101F20000122002384F8352084F834300029B3D00E
:101F3000204603B0BDE8F040084713F4807380D119
:101F40000A6822F010020A60012284F8352084F821
:101F5000343076E7636C002B7FF475AF75E7A26CC5
:101F6000002AD4D1D7E700BF00000020B5814E1B66
:101F7000406D70472DE9F04FC04B0A68984285B01C
:101F80004FF000034FF0010B00F0C480DFF8FCA21B
:101F9000894602E00133102B7BD00BFA03F101EAF2
:101FA00002089143F6D1D9F8044004F0030C59001B
:101FB00003250CF1FF368D40012E6FEA05056BD924
:101FC000BCF1030F40F0748106680CFA01F1354052
:101FD000294314F4403F0160DCD000210391DAF87A
:101FE000441041F48041CAF84410DAF8441001F476
:101FF00080410391039923F0030101F1804103F033
:1020000003060F2701F59C31B60007FA06FC9C4F2A
:102010008D68B84225EA0C0576D09A4FB84200F098
:102020003B81DFF86CC2604500F03C81DFF864C2A0
:1020300060450CBF4FF0040C4FF0070C0CFA06F68D
:1020400035438D6090498968E6026FEA08058E4E37
:1020500054BF294048EA0101B160F1688A4EA702E5
:1020600054BF294048EA0101F1607168A603864E19
:1020700054BF294048EA010171603168E40303F16B
:102080000103814C54BF294048EA0101102B216013
:1020900083D105B0BDE8F08F866806EA050ED9F851
:1020A0000C608E4046EA0E068660466826EA080EF8
:1020B000C4F300169E4046EA0E064660C66806EA6D
:1020C000050ED9F808608E4046EA0E06BCF1020FF4
:1020D000C6607FF479AFDE0800EB86060196376AAA
:1020E000D9F81060009703F0070E4FEA8E0E0F2705
:1020F00006FA0EF607FA0EFE009F27EA0E0E019F63
:1021000046EA0E063E625FE74FF0010C0CFA06F657
:10211000354396E7DFF8708102E00133102BB8D029
:102120000BFA03F402EA04069443F6D14D6805F075
:10213000030400945F00032404FA07FC009C6FEA88
:102140000C0A04F1FF3CBCF1010F4CD9032C40F008
:10215000B980009CBC40076807EA0A073C4315F4B5
:10216000403F0460D9D0494F002403947C6C44F470
:1021700080447C647C6C04F480440394039C23F0CE
:10218000030404F1804404F59C3403F003074FF08A
:102190000F0CBF000CFA07F7D4F808C02CEA0707A9
:1021A000A76015F4801FD8F808406FEA060762D1CF
:1021B0003C40C8F8084015F4001FD8F80C4058D12E
:1021C0003C40C8F80C4015F4003FD8F804404ED10C
:1021D0003C40C8F80440ED03D8F8004045D43C40EA
:1021E000C8F8004099E7D0F808E0CC680AEA0E0E7B
:1021F00004FA07FC4CEA0E0CC0F808C0D0F804E062
:10220000C5F3001C2EEA060E0CFA03FC4CEA0E0C79
:10221000C0F804C08C68D0F80CE004FA07FC009CFD
:102220000AEA0E0E4CEA0E0C022CC0F80CC090D13B
:102230004FEAD30C4FEA8C0C0C690CF1804C03F084
:10224000070E0CF5003C4FEA8E0E04FA0EF4DCF893
:10225000209001940F2404FA0EFE019C29EA0E0935
:1022600044EA090ECCF820E073E73443B8E734437E
:10227000AFE73443A5E734439BE700BF00000240CB
:102280000004024000080240003C014000380240C7
:10229000000C0240001002404FF0020C0CFA06F64F
:1022A0003543CEE64FF0030C0CFA06F63543C8E68C
:1022B000C66806EA050ED9F808608E4046EA0E06A2
:1022C000C66081E6DFF818E08C68DEF80C9004FA4E
:1022D00007FC0AEA09094CEA090CCEF80CC038E7F9
:1022E000000002400369194214BF0120002070471A
:1022F00002B9090481617047704700BF044A5169FF
:10230000014200D1704708B55061FFF7F5FF08BDE5
:10231000003C0140002800F0D8812DE9F04103681D
:10232000DD0782B004462FD59D498A6802F00C0271
:10233000042A00F0EC808A6802F00C02082A00F0FF
:10234000E2806368B3F5803F00F0EB80B3F5A02F27
:1023500000F07381924D2A6822F480322A602A6844
:1023600022F480222A60002B40F0E080FFF79CFBE3
:10237000064605E0FFF798FB801B642800F2008109
:102380002B689F03F6D423689D0728D5844A91685B
:1023900011F00C0F00F09B80916801F00C010829EE
:1023A00000F09180E368002B00F00C817D4B7C4EA7
:1023B00001221A60FFF778FB054605E0FFF774FB82
:1023C000401B022800F2DC8033689F07F6D5336893
:1023D000226923F0F80343EAC203336023681A0733
:1023E0005CD45D073AD56E4A136C13F0805340F00D
:1023F00088800193136C43F080531364136C03F0D3
:1024000080530193019B0125674E3368D80540F145
:10241000A780A368012B00F0B780052B00F01D8179
:102420005F4E326F22F001023267326F22F00402F7
:102430003267002B40F0AD80FFF736FB41F2883861
:10244000074605E0FFF730FBC01B404500F29880CF
:10245000336F9B07F6D4002D40F0F980A369CBB110
:102460004F4DAA6802F00C02082A00F0BC80022B33
:102470004C4B4FF000021A6600F0F980FFF714FB96
:10248000044604E0FFF710FB001B022878D82B68F5
:102490009B01F7D4002002B0BDE8F0816369FBB175
:1024A000404B3F4E0122C3F8802EFFF7FDFA054650
:1024B00004E0FFF7F9FA401B022861D8736F9B070D
:1024C000F7D523688DE7526851023FF56BAF344A68
:1024D0001268920738D5E268012A35D00120DAE780
:1024E000304A2F4EC2F8803EFFF7DEFA054604E080
:1024F000FFF7DAFA401B022842D8736F9F07F7D420
:10250000DFE7002580E74A6851027FF51AAF244AC9
:10251000126892037FF538AF6268002A7FF434AF07
:10252000DCE71F4A136843F480331360FFF7BCFAFB
:102530001B4E054604E0FFF7B7FA401B64281FD87E
:1025400033689B03F7D51EE7154920690A6822F016
:10255000F80242EAC0020A601A077FF542AF9DE71F
:10256000336843F480733360FFF79EFA074633689D
:10257000D9053FF54EAFFFF797FAC01B0228F6D9F1
:10258000032002B0BDE8F081054A136F43F0010358
:102590001367FFF789FA024F064641F288380AE0CE
:1025A000003802400000474200700040FFF77CFA0C
:1025B000801B4045E4D83B6F9A07F7D5002D3FF4C8
:1025C0004DAF44E0424A434E1360FFF76DFA0546B3
:1025D00004E0FFF769FA401B0228D1D83368990755
:1025E000F7D42368FBE6012B3FF478AF6B68E26910
:1025F00003F4800191427FF471AF226A03F03F013E
:1026000091427FF46BAF616A47F6C0721A40B2EB39
:10261000811F7FF463AFA26A520803F44031013A8C
:10262000B1EB024F7FF45AAFE26A03F07063B3EB91
:10263000026F14BF012000202DE7264B1A6842F4D8
:1026400080221A601A6842F480321A606EE7214ACA
:10265000136C23F08053136400E71E4B1A6F42F093
:1026600004021A671A6F42F001021A6791E7FFF736
:102670001BFA064605E0FFF717FA801B02283FF613
:102680007FAF2B689901F6D4D4E90731626A0B4316
:1026900043EA8213D4E90A2052080D4943EA006351
:1026A000013A43EA024301226B600A66FFF7FCF934
:1026B000084D044605E0FFF7F7F9001B02283FF636
:1026C0005FAF2B689A01F6D5E4E60120704700BFA2
:1026D0000000474200380240164908B58B6803F0F5
:1026E0000C03042B1BD0082B01D0134808BD4A68EB
:1026F0004B68496813F4800302F03F0211D10E4881
:10270000C1F38811A1FB0001FDF76AFD094B5B686D
:10271000C3F3014301335B00B0FBF3F008BD07488E
:1027200008BD0648C1F388110023A1FB0001FDF795
:1027300057FDEBE7003802400024F40000127A0055
:10274000002800F08780484A136803F007038B4293
:102750002DE9F0410D46044609D2CBB2137013683F
:1027600003F007038B4202D00120BDE8F08123680B
:10277000980714D5590704D53C498A6842F4E052B9
:102780008A601A0704D539498A6842F460428A602F
:102790003649A0688A6822F0F00202438A60DF07A7
:1027A00021D56268012A57D0931E012B2F4B1B683D
:1027B0004DD99907D8D52D4EB36823F003031343A1
:1027C000B360FFF771F941F28838074604E0FFF77C
:1027D0006BF9C01B404544D8B368626803F00C0332
:1027E000B3EB820FF3D1204A136803F00703AB4227
:1027F00006D9EBB21370136803F00703AB42B3D1F1
:1028000023685A0706D51949E0688A6822F4E0521D
:1028100002438A601B0707D5144A2169936823F491
:10282000604343EAC1039360FFF756FF0F4A104C21
:1028300092681049C2F303120346A25C0E48D340CB
:1028400000680B60FEF7A4FF0020BDE8F08198014E
:10285000B1D489E701207047044B1B689E03AAD4BA
:1028600082E7032081E700BF003C024000380240BD
:10287000446D00080000002008000020044B0549BA
:102880009B68054A0868C3F38223D35CD84070472D
:1028900000380240000000203C6D0008044B054950
:1028A0009B68054A0868C3F34233D35CD84070473D
:1028B00000380240000000203C6D00080E4B0F2243
:1028C00010B402609A680D4C02F0030242609A68EC
:1028D00002F0F00282609A6802F4E052C2609B68E3
:1028E000DB0803F4E053036123685DF8044B03F055
:1028F00007030B60704700BF00380240003C0240F5
:1029000000285CD070B50446406A002847D00023F8
:10291000C4E9043394F851300022A26203F0FF01AD
:10292000002B42D094462168A568A269266A02233A
:1029300084F851300B6823F040030B60636805F4A2
:10294000044503F482732B43E56805F400652B43CB
:10295000256905F002052B43656905F001052B4348
:10296000E56906F0800E02F4007605F03805334381
:102970002B43120C00F0100043EA0E0302F0040295
:1029800043EA0C0302430B604A60CB69002023F446
:1029900000630122CB61606584F8512070BD6368DB
:1029A000B3F5827FB6D0E061B4E7204684F85010DA
:1029B000FEF75AFDD4E9090303F4005CB3E70120F4
:1029C000704700BF002871D070B590F83D300446C4
:1029D00003F0FF02002B53D02268354E6168E06897
:1029E000A569022384F83D30B24213684DD0B2F19C
:1029F000804F17D0A6F57C46B24213D006F580660C
:102A0000B2420FD006F58066B2420BD0294EB242D8
:102A10000CD006F58066B24208D006F58066B24258
:102A200008D103E0A66823F070033343266923F43A
:102A30004073334323F080032B431360D0629162D1
:102A4000012353611369DB0703D5136923F00103E5
:102A50001361012384F8463084F83E3084F83F3017
:102A600084F8403084F8413084F8423084F84330B0
:102A700084F8443084F8453084F83D30002070BD3F
:102A800080F83C20FEF72CFDA6E7A66823F0700333
:102A90003343266923F44073334323F080032B43ED
:102AA0001360D062916263691363C9E701207047C4
:102AB000000001400040014090F83D30012B27D13B
:102AC00003681449022280F83D20DA688B4242F004
:102AD0000102DA6011D0B3F1804F0ED00E4A93425A
:102AE0000BD002F58062934207D002F580629342D8
:102AF00003D002F59A32934204D19A6802F0070299
:102B0000062A03D01A6842F001021A6000207047BA
:102B10000120704700000140000400400368DA68AB
:102B200022F00102DA601A6A41F211110A4208D158
:102B3000196A40F24442114203D11A6822F001029C
:102B40001A60012380F83D300020704790F83C2047
:102B5000012A6ED00346026830B40120022483F8B3
:102B60003C0083F83D40946824F47F4424F07704CB
:102B700094600C68602C76D011D8402C5BD02ED895
:102B8000202C04D000F2888034F010011FD191680D
:102B900021F07001214341F00701916016E0B4F586
:102BA000805F13D0B4F5005F33D0702C0FD1D1E922
:102BB000015094682843CD6824F47F4140EA052001
:102BC00008439060916841F07701916000200121F5
:102BD000002283F83D1083F83C2030BC7047502C15
:102BE000F5D14868CC68116A21F00A010843116ADE
:102BF00021F001011162916921F0F00141EA041113
:102C000091611062916821F0700141F0570191606B
:102C1000DCE7D1E9015094682843CD6824F47F4172
:102C200040EA052008439060916841F4804191603A
:102C3000CCE7022070474868CC68116A21F00A018D
:102C40000843116A21F001011162916921F0F0013C
:102C500041EA041191611062916821F0700141F024
:102C600047019160B2E74868CC68116A21F0A00181
:102C700041EA0011106A20F010001062906920F4FF
:102C8000704040EA043090611162916821F0700157
:102C900041F06701916099E7302C3FF478AF96E7F7
:102CA000704700BF704700BF704700BF704700BF4C
:102CB000036870B5DE681D69A907044601D5B2072F
:102CC00051D4690701D572073AD42B0701D53007D3
:102CD00024D4EA0601D5F30610D4E80701D5F1079C
:102CE00057D42A0601D533065BD4680601D5710690
:102CF0005FD4AA0601D5B30642D470BD23686FF035
:102D000010021A6108222277DB6913F4407F204603
:102D100063D0FFF7C7FF00232377DEE723686FF058
:102D200008021A6104222277DB699907204651D1F3
:102D3000FFF7B6FF2046FFF7B7FF00232377C8E76A
:102D400023686FF004021A61022222779B6913F450
:102D5000407F20463BD1FFF7A3FF2046FFF7A4FFAB
:102D600000232377B1E76FF002021A610122027794
:102D70009B699B0725D0FFF795FF00232377A0E7EA
:102D800023686FF0200220461A61BDE8704000F011
:102D900063B823686FF001021A612046FEF738FB22
:102DA0009FE723686FF080021A61204600F056F812
:102DB0009BE723686FF040021A612046FFF776FF19
:102DC00097E7FFF76DFF2046FFF76EFFD5E7FFF7A8
:102DD00069FFC5E7FFF766FFAFE7FFF761FF204632
:102DE000FFF762FF97E700BF90F83C20012A2FD041
:102DF00003460268022030B483F83D0050680D6835
:102E0000946820F07000284350601248824212D02B
:102E1000B2F1804F0FD0A0F57C4082420BD000F57C
:102E20008060824207D000F58060824203D000F5C6
:102E30009A30824204D1496824F080040C439460A3
:102E40000020012283F83D2083F83C0030BC70470D
:102E50000220704700000140704700BF704700BF6C
:102E6000002800F0878038B590F84130044603F020
:102E7000FF02002B79D02368E068242284F84120E7
:102E8000DA6822F40052DA601969A26821F440512C
:102E900001432069196102436069D9680243E0690E
:102EA00021F4164121F00C0102430A43DA605A6909
:102EB000A069314922F4407202438B425A6136D0F4
:102EC0002E4A934233D0FFF7D9FCE2691921B2F5BB
:102ED000004FD4E90053A0FB01012BD09A009B0FB7
:102EE000FDF77EF9264AA2FB00135B09642101FB72
:102EF000130000013230A2FB00201B0103EB501332
:102F0000AB602A6922F490422A616A6922F02A029F
:102F10006A61EA680023202142F40052EA60636497
:102F200084F8411084F842101846636338BDFFF7F7
:102F3000B5FCCAE7DA184FF000035B41FDF750F922
:102F40000F4AA2FB00314909642303FB1103DB0094
:102F50003233A2FB0323C3F342121B0902EB01121B
:102F600003F4F8731344AB60CBE780F84020FEF71E
:102F70002BFB80E701207047001001400014014046
:102F80001F85EB512DE9F043044690F842002028BC
:102F900083B04AD10D4609B116461AB9012003B0D3
:102FA000BDE8F0834FF000081F462223C4F8448098
:102FB00084F84230C4F83080FEF776FDA368A68519
:102FC000B3F5805F8146E68500F099804646E38D43
:102FD0009BB2CBB17B1C41D1226813689F06FCD504
:102FE000EDB1A368B3F5805F02D0A3B9236993B9AB
:102FF0005368DBB205F8013BE38D013B9BB2E385EF
:10300000E38D9BB2002BE7D12023002084F84230CF
:1030100003B0BDE8F083536803F07F03EAE7536829
:10302000C3F3080326F8023BE6E7022003B0BDE83D
:10303000F083002D70D0A268B2F5805F69D0002ABD
:1030400064D05B6803F07F0305F8013BE38D013B2F
:103050009BB2E385E38D9BB2002BD5D023681A6821
:1030600012F02008E5D1FEF71FFDA0EB09039F42F7
:103070003ED3002F3CD02368D96848071A46EED5C6
:1030800019680907EBD5CDF80480196801915968D2
:103090000191019903F10C0151E8001F21F4907195
:1030A0000C3343E8001058B102F10C0353E8003F21
:1030B00023F4907302F10C0040E800310029F3D1B1
:1030C00002F1140353E8003F23F0010302F114005E
:1030D00040E800310029F3D1236B012B22D00023DB
:1030E0002021082284F8421084F84030236362646F
:1030F0002023032084F8423003B0BDE8F083236925
:10310000002B7FF463AF2E461D4660E72269002A3C
:1031100097D15B68DBB297E75B68C3F3080326F8D7
:10312000023B93E702F10C0353E8003F23F0100346
:1031300002F10C0040E800310029F3D1CFE700BFD5
:1031400090F84230202B20D101B10AB901207047FC
:1031500010B4046981620023222103638285C28541
:103160004364036880F842101CB1DA6842F480724C
:10317000DA605A695DF8044B42F001025A61DA687C
:1031800042F020020020DA6070470220704700BF42
:10319000F8B5044690F84100202803D101B11AB9CE
:1031A0000120F8BD0220F8BDE284A284A06BDFF804
:1031B00054C0124F124E21621346226800254FF070
:1031C000210E6564043284F841E0C0E90FC7C0E90C
:1031D0001365FEF75FFD22686FF04003136002F194
:1031E000140353E8003F43F0800302F1140040E869
:1031F00000310029F3D10020F8BD00BFC53200081E
:10320000D532000875320008026810B5044602F194
:103210000C0353E8003F23F0C00302F10C0040E828
:1032200000310029F3D153691B0605D40020202367
:10323000E08484F8413010BD02F1140353E8003FEC
:1032400023F0800302F1140040E800310029F3D19B
:10325000A06B0028EAD000230365FEF757FD002885
:10326000E4D0A06BFEF784FE2028DFD11023636436
:10327000032010BD08B50368806B1B6813F48073CE
:103280001AD10268C38402F1140353E8003F23F00B
:10329000800302F1140040E800310029F3D102F16B
:1032A0000C0353E8003F43F0400302F10C0040E8F8
:1032B00000310029F3D108BDFDF768FB08BD00BF50
:1032C000704700BF08B5806BFFF7FAFF08BD00BF6D
:1032D000704700BF08B5806B0368596990F84120BA
:1032E000212A0BD0596990F84220222A1ED0436C23
:1032F00043F010034364FFF7EBFF08BD0906F1D567
:103300000022C28403F10C0252E8002F22F0C00216
:1033100003F10C0C4CE800210029F3D1202280F8A5
:103320004120596990F84220222AE0D14A06DED590
:103330000022C28503F10C0252E8002F22F49072A1
:1033400003F10C0C4CE800210029F3D103F1140225
:1033500052E8002F22F0010203F1140C4CE8002186
:103360000029F3D1026B012A05D02022002380F826
:1033700042200363BBE703F10C0252E8002F22F066
:10338000100203F10C0C4CE800210029F3D1ECE70A
:1033900008B5806B0023C385C384FFF799FF08BD80
:1033A000704700BF83680168826AB3F5805F42D0CE
:1033B000002B39D04B6803F07F031370826A01320F
:1033C000C38D8262013B9BB2C385002B32D100B515
:1033D0000268D16821F0200183B0D160D16821F466
:1033E0008071D16051694FF0200C21F001015161D1
:1033F00080F842C04363016B012925D1036302F1C8
:103400000C0353E8003F23F0100302F10C0C4CE8CE
:1034100000310029F3D11368DB061AD4818DFFF740
:10342000BFFF03B05DF804FB0369002BC2D14B68FA
:10343000DBB2C2E770470369002BF8D14B68C3F3D6
:10344000080322F8023BBBE7FDF7ACFB03B05DF8D5
:1034500004FB002301931368019353680193019BBC
:10346000DCE700BF30B503681A68DD68596912F0FF
:103470000F0F83B0044670D1910602D5A90600F162
:10348000A380216B01290BD0100602D5290600F17B
:10349000A580520602D5680600F1BF8003B030BD9A
:1034A000D006F1D5E906EFD5002201921A68019203
:1034B0005A680192019A5A69550640F13C81E06BC5
:1034C0000268526892B2002AE8D0A18D9142E5D9F3
:1034D000E285C269B2F5807F36D003F10C0252E872
:1034E000002F22F4807203F10C0545E80021002929
:1034F000F3D103F1140252E8002F22F0010203F18C
:10350000140545E800210029F3D103F1140252E823
:10351000002F22F0400203F1140545E800210029A4
:10352000F3D1202284F84220216303F10C0252E8F7
:10353000002F22F0100203F10C0545E800210029BC
:10354000F3D1FEF7E3FBA18D02236363E38DC91A78
:10355000204689B2FFF724FFA0E711F0010140F0F7
:10356000CF8015F4907F8CD0D0070BD5E80540F1C3
:10357000DE80606C40F00100606450075CD500297B
:1035800040F0C280900766D5100700F1CD80616CD5
:10359000002983D0910609D5AA0607D594F84220C0
:1035A000222A03D12046FFF7FDFE23685A69616C89
:1035B00002F0400201F0080152EA010555D120460F
:1035C000FFF786FE656469E790F84230222B7FF4AE
:1035D00065AF03B0BDE83040FFF7E4BE94F841208A
:1035E000212A7FF45BAFA168226AB1F5805F00F009
:1035F000DD80511C216212785A60E28C013A92B24D
:10360000E284002A7FF44AAFDA6822F08002DA60AE
:10361000DA6842F04002DA6040E7DA68202122F0FE
:103620004002DA60204684F84110FDF7AFF935E733
:10363000E8059ED4500767D490070CD50029A3D085
:10364000616C41F0040161641107A0D5616C41F027
:10365000080161649BE7100799D505F02000084335
:10366000F4D1626C002AA1D118E703F10C0252E8F0
:10367000002F22F4907203F10C0040E80021002991
:10368000F3D103F1140252E8002F22F0010203F1FA
:10369000140040E800210029F3D1226B012A22D036
:1036A0000022202184F8421022635A69550634D53D
:1036B00003F1140252E8002F22F0400203F114003B
:1036C00040E800210029F3D1E06B30B33D4B0365A6
:1036D000FEF766FB00283FF4E1AEE06B036D03B03C
:1036E000BDE83040184703F10C0252E8002F22F0E9
:1036F000100203F10C0040E800210029F3D1CFE7CC
:10370000D00795D450070CD5616C41F0020161647B
:10371000910795D4110799D439E72046FFF7D8FDD2
:10372000BCE691078CD4F5E7A9068FD499E750073A
:103730003FF528AF80E7E18DE28DA08D92B289B28E
:10374000002A3FF4ABAE411A89B200293FF4A6AE7D
:1037500003F10C0252E8002F22F4907203F10C05E1
:1037600045E800200028F3D103F1140252E8002FAD
:1037700022F0010203F1140545E800200028F3D1EE
:10378000202284F84220206303F10C0252E8002F2B
:1037900022F0100203F10C0545E800200028F3D1C7
:1037A000022363632046FFF7FBFD77E621690029CA
:1037B0007FF41FAF32F8021BC1F308015960226287
:1037C0001BE700BF9133000808B54FF0E0231B69E9
:1037D00002F0F4F8012800D108BDBDE8084002F06D
:1037E000E1BE00BFEFF305832BB9064B186828B97B
:1037F00001221A6070476FF0050070474FF0FF30EC
:10380000704700BFC40C002010B5EFF3058474B9F5
:10381000084B1A68012A07D107490222CC771A609F
:1038200001F0AAFE204610BD4FF0FF3010BD6FF032
:10383000050010BDC40C002000ED00E0F0B587B01D
:10384000002514460595EFF3058212B1002007B05C
:10385000F0BD0028FAD004B3A369D3B91823626875
:10386000D207F3D465692DB3AA08A668D4F800C0BE
:10387000E7680EB3A72FE9D92469002CE6D0002D04
:10388000E4D00093CDE901460B46614601F0B4FD5A
:10389000DDE75D1E372DE2D9D8E78022182300939B
:1038A0000B46214605AC019401F0E0FD0128CDD185
:1038B0000598CCE78022D8E7002FC7D12469002CD7
:1038C000C4D192B26446EAE7F0B100291CDB30B5FE
:1038D00085B04FF0FF3304460293EFF30585B5B191
:1038E000002503AB009301222B46039502F0ACFAAE
:1038F00002AB00952A462946204602F0A5FA039B12
:1039000093B9029805B030BD6FF0030070472B46A5
:10391000012202F01DFA02AB2A462946204602F097
:1039200017FA029805B030BD4FF0E0234FF08052F7
:10393000C3F8042DBFF34F8FBFF36F8FE1E700BFD4
:103940002DE9F04782B0EFF30585002D6FD10028F7
:1039500007466FDB11F0020F0E4614460CBF81467E
:103960004FF0000901F09CFE06F0010682460DF1C1
:1039700004088CB1BEBB234642464946002002F0F3
:1039800071F9012843D0002859D06FF00106F2E701
:103990006FF00204002850D00023424649461846E2
:1039A00002F060F90128F3D1019B04EA07051D43E9
:1039B00007EA05031EB39F4218BF6FF002052846B1
:1039C00002B0BDE8F087019B3D401D4337EA050387
:1039D000F5D001F065FEA0EB0A039C425444A4EB31
:1039E000000400D20024234642464946002002F04B
:1039F00039F90128E7D010B36FF00105F3E7002B88
:103A000008BF6FF00205284602B0BDE8F087019BB1
:103A10003E401E4317EA060514D101F041FEA0EB1B
:103A20000A039C42544400D3251A2C46A3E76FF0A6
:103A30000505C4E76FF00305C1E72546BFE76FF052
:103A40000105BCE73546BAE7EFF305823AB908B598
:103A500008B9002008BD01F039FD002008BD6FF055
:103A60000500704738B5EFF305833BB90446E0B174
:103A7000436803F00802DB0703D402B3002528469D
:103A800038BD002AFAD1D0E9021389B34F2BF5D9FA
:103A9000042000F0B5FC05460028EFD0216845F071
:103AA000010501F07BF9284638BD012000F018FD22
:103AB00005460028E3D0214601F070F9DFE7D0E9A0
:103AC000021361B14F2BD9D9012000F099FC0546B2
:103AD0000028D4D0216801F061F9284638BD002BB8
:103AE000CCD1012000F0FCFC05460028F2D1C6E74D
:103AF000002BC3D1042000F0F3FC05460028CDD1F3
:103B0000BCE700BFEFF30582D2B9012838B5034600
:103B100019D903F001050C4620F0010055B900F059
:103B2000EBFE01280AD0002C14BF6FF001006FF0EB
:103B3000020038BD01F070F80128F4D1002038BD32
:103B40006FF0050070476FF0030038BDEFF305819B
:103B5000B9B90128024617D908B502F0010320F0CF
:103B600001003BB91A46194600F0CAFA012805D1EE
:103B7000002008BD00F094FC0128F9D06FF002008D
:103B800008BD6FF0050070476FF00300704700BF7D
:103B9000F0B583B0EFF3058656B948B188420F46B9
:103BA00006D31546FAB1D2E902232AB14F2B28D801
:103BB0000024204603B0F0BD002BF9D1012806D027
:103BC00000F058FA04460028F2D02D6812E00322D3
:103BD0000021012000F0ACF904460028E8D0C7B964
:103BE000002DF2D106E00128F1D000F043FA04469E
:103BF0000028DDD02046294601F0D0F8204603B049
:103C0000F0BD012810D000F0D5F904460028DCD121
:103C1000CEE700231A46194600F072FA0128DFD0D9
:103C2000204601F075F8C3E713460322009231469F
:103C3000324600F00DF904460028B9D0002FC4D058
:103C400033463246314600F05BFA0128BDD0E7E743
:103C500060B310B50C4682B0EFF30583B3B111BB6E
:103C600001AA019100F0F8FF012818D1019B13B9B6
:103C7000002002B010BD4FF0E0234FF08052C3F897
:103C8000042DBFF34F8FBFF36F8FF1E700F034FEC9
:103C90000128EDD01CB16FF0010002B010BD6FF033
:103CA000020002B010BD6FF00300E2E76FF0030006
:103CB000704700BF28B300B583B0EFF305839BB115
:103CC000002301A9019300F043FC012816D1019BB8
:103CD00083B14FF0E0234FF08052C3F8042DBFF3BF
:103CE0004F8FBFF36F8F05E01A46194600F008FAB0
:103CF000012803D1002003B05DF804FB6FF002003F
:103D0000F9E76FF003007047044B10B40360044CF4
:103D10000C6080235DF8044B136070471C0C00207E
:103D20001C0A0020054B10B40360054C0C604FF4D6
:103D300080735DF8044B1360704700BF7409002066
:103D40007405002000F108034FF0FF310022C0E9A4
:103D50000131C0E903330260704700BF00230361F3
:103D6000704700BF4268036810B494680133C1E92A
:103D70000124616091605DF8044B08610360704745
:103D800030B40D686B1C10D000F108031C465B6852
:103D90001A68AA42FAD902684B60013299608C60B5
:103DA0006160086130BC0260704704696368F2E7D3
:103DB000036910B4D0E901125C688A6084425160E2
:103DC00008BF5A601A685DF8044B0021013A01618E
:103DD0001A601868704700BF036C70B5856B0446A5
:103DE0002BB90668013546B31846A56370BD164663
:103DF00082B91A46406802F081FE6368216CA268AD
:103E00000B449342636024BF236863600135002044
:103E1000A56370BD1A46C06802F070FE226CE368AC
:103E200051429B1A2268E360934202D2A3680B447A
:103E3000E360022E06D00135E9E7806801F00EFE4E
:103E4000A660D2E7012D38BF01250020CDE700BFD5
:103E500030B583B09DF8185040B94FF0500383F34C
:103E60001188BFF36F8FBFF34F8FFEE71C4683B1FE
:103E7000002A4AD0B1B150230193019B502B1AD094
:103E80004FF0500383F31188BFF36F8FBFF34F8F51
:103E9000FEE74FF0500383F31188BFF36F8FBFF33A
:103EA0004F8FFEE74FF0500383F31188BFF36F8FFE
:103EB000BFF34F8FFEE7019B22600123C4E90F018E
:103EC00084F8463002F006FBD4E90F2321686160D4
:103ED00003FB02F2D31A0A44A26000220B44A2633D
:103EE000FF2284F84420E36084F8452004F11000A8
:103EF000FFF728FF04F12400FFF724FF02F00CFB7A
:103F0000204684F84C5003B030BD39B9502301939A
:103F1000019B502BB4D1019B2246CDE74FF05003BB
:103F200083F31188BFF36F8FBFF34F8FFEE700BF9E
:103F3000F8B540B94FF0500383F31188BFF36F8F8A
:103F4000BFF34F8FFEE7054601FB00F050300E46F1
:103F5000174602F01FFC044640B3002380F84630A9
:103F600036B300F150032360C4E90F5602F0B2FAF1
:103F7000D4E90F232168616003FB02F2D31A0A44DB
:103F8000A26000220B44A263FF2284F84420E36075
:103F900084F8452004F11000FFF7D4FE04F124005A
:103FA000FFF7D0FE02F0B8FA84F84C702046F8BD56
:103FB0000346D8E740B94FF0500383F31188BFF3AD
:103FC0006F8FBFF34F8FFEE7884208D24FF0500348
:103FD00083F31188BFF36F8FBFF34F8FFEE730B5C8
:103FE000144685B0002A3BD050230393039B502BEB
:103FF00008D04FF0500383F31188BFF36F8FBFF3E6
:104000004F8FFEE70025012382F846302260C2E987
:104010000F050191039B02F05DFAD4E90F2320689C
:10402000A56303FB02F2D31A02440344A260FF22F9
:1040300084F84420E36084F84520606004F11000B7
:10404000FFF780FE04F12400FFF77CFE02F064FA23
:104050000199A1630223204684F84C3005B030BD9D
:104060004FF0500383F31188BFF36F8FBFF34F8F6F
:10407000FEE700BFF8B540B94FF0500383F3118855
:10408000BFF36F8FBFF34F8FFEE788420E460446A3
:1040900008D24FF0500383F31188BFF36F8FBFF343
:1040A0004F8FFEE7502002F075FB054630B3002726
:1040B000C0E90F4780F84670006002F00BFAD5E9BE
:1040C0000F232968AF6303FB02F2D31A0A440B449F
:1040D000AA60FF2285F84420EB60696085F84520DE
:1040E00005F11000FFF72EFE05F12400FFF72AFE70
:1040F00002F012FA022385F84C30AE632846F8BD70
:104100002DE9F04385B00192002800F01A8188461D
:104110001F460446002900F0AE80022F0BD1E36B4E
:10412000012B08D04FF0500383F31188BFF36F8F3A
:10413000BFF34F8FFEE701F041FC002800F00A8139
:1041400002F0C8F9A26BE36B9A427AD3022F78D0BF
:10415000002304F12406019A002A00F00881002BB4
:1041600000F0EB8002F0D8F901F082FA02F0B2F927
:1041700094F84430FF2B04BF002384F8443094F8B3
:104180004530FF2B04BF002384F8453002F0C4F90A
:1041900001A902A801F0C4FB002840F0EC8002F065
:1041A00099F9A26BE36B9A4272D002F0B5F902F072
:1041B00091F994F8452055B2002D04DC11E06A1EF7
:1041C000D3B255B26BB1636A304653B101F058FBBC
:1041D0000028F4D001F0E6FB6A1ED3B255B2002BE2
:1041E000F1D1FF2384F8453002F096F902F072F91C
:1041F00094F8442055B2002D14DD04F1100903E0B9
:104200006A1ED3B255B26BB12369484653B101F06F
:1042100037FB0028F4D001F0C5FB6A1ED3B255B2BB
:10422000002BF1D1FF2384F8443002F075F901F03E
:1042300027FA02F04FF9A16BE26B91424FF00103B4
:1042400089D23A4641462046FFF7C6FD636A002BF5
:1042500040F0CE8048B14FF0E0234FF08052C3F8D9
:10426000042DBFF34F8FBFF36F8F02F055F901207C
:1042700005B0BDE8F083036C002B3FF44EAF4FF068
:10428000500383F31188BFF36F8FBFF34F8FFEE7A7
:1042900004F1100902F040F90199484601F062FA70
:1042A00002F018F994F845305DB2002D04DC11E0FD
:1042B0006B1EDAB25DB26AB1636A304653B101F087
:1042C000DFFA0028F4D001F06DFB6B1EDAB25DB2AC
:1042D000002AF1D1FF2384F8453002F01DF902F0E5
:1042E000F9F894F844305DB2002D04DC11E06B1E47
:1042F000DAB25DB26AB12369484653B101F0C0FA3F
:104300000028F4D001F04EFB6B1EDAB25DB2002A39
:10431000F1D1FF2384F8443002F0FEF801F0B0F947
:10432000002886D14FF0E0234FF08052C3F8042DCF
:10433000BFF34F8FBFF36F8F7BE702A801F0E4FA62
:1043400010E74FF0500383F31188BFF36F8FBFF373
:104350004F8FFEE7019B002B3FF4F2AE4FF050036E
:1043600083F31188BFF36F8FBFF34F8FFEE702F027
:10437000D3F800207CE702F0ADF894F845305DB248
:10438000002D10DD04F1240603E06B1EDAB25DB2ED
:104390004AB1636A304633B101F072FA0028F4D0B2
:1043A00001F000FBF1E7FF2384F8453002F0B4F898
:1043B00002F090F894F844305DB2002D10DD04F165
:1043C000100603E06B1EDAB25DB24AB123693046D3
:1043D00033B101F055FA0028F4D001F0E3FAF1E727
:1043E000FF2384F8443002F097F801F049F9C0E760
:1043F00004F1240001F044FA00283FF436AF2AE724
:10440000002944D070B582B050230193019B502BFA
:1044100008D04FF0500383F31188BFF36F8FBFF3C1
:104420004F8FFEE70C4600260123C1E90F3681F8C5
:10443000463009600546019B02F04CF8216CE36BA5
:104440002268626001FB03F3591A13440A44C4E969
:104450000232FF23A66304F1100084F8443084F88C
:104460004530FFF76FFC04F12400FFF76BFC02F00E
:1044700053F884F84C50A6602660E6603346324616
:1044800031462046FFF73CFE204602B070BD4FF09B
:10449000500383F31188BFF36F8FBFF34F8FFEE795
:1044A00038B538B18568044601F082FA85420AD0F1
:1044B000002038BD4FF0500383F31188BFF36F8F96
:1044C000BFF34F8FFEE7E368013BE3600BB10120D0
:1044D00038BD1A4619462046FFF712FEF7E700BF1F
:1044E00070B50646502002F055F9044670B3002519
:1044F000012380F846502060C0E90F3501F0EAFF43
:10450000D4E90F232168616003FB02F2D31A0B4444
:104510000A44E360FF23A260A56304F1100084F85D
:10452000443084F84530FFF70DFC04F12400FFF718
:1045300009FC01F0F1FF84F84C60A5602560E5609E
:104540002B462A4629462046FFF7DAFD204670BD55
:1045500060B3036C70B5044643B14FF0500383F36E
:104560001188BFF36F8FBFF34F8FFEE703680D46CF
:104570002BB302F0E1F8EFF311864FF0500383F311
:104580001188BFF36F8FBFF34F8FA36BE26B9A421B
:1045900021D994F845200133FF2AA36353B21ED0DA
:1045A00001335BB284F84530012015E04FF0500331
:1045B00083F31188BFF36F8FBFF34F8FFEE78368DC
:1045C000002BD6D04FF0500383F31188BFF36F8FC9
:1045D000BFF34F8FFEE7002086F3118870BD636A3A
:1045E000002BE1D004F1240001F04AF90028DBD0CF
:1045F000002DD9D001232B60D6E700BF2DE9F04371
:1046000085B00192002800F047810F46044600293A
:104610007BD001F0D3F9002800F0838001F05AFF2D
:10462000A56B002D40F04181019B002B00F0D7804D
:1046300002A801F069F9A84604F1240601F06CFF14
:1046400001F016F801F046FF94F84430FF2B08BF44
:1046500084F8448094F84530FF2B08BF84F84580E7
:1046600001F05AFF01A902A801F05AF9002865D10A
:1046700001F030FFA36B002B00F0B78001F04CFF7E
:1046800001F028FF94F845305DB2002D14DD04F1EF
:10469000240903E06B1EDAB25DB26AB1636A484670
:1046A00053B101F0EDF80028F4D001F07BF96B1E56
:1046B000DAB25DB2002AF1D1FF2384F8453001F06F
:1046C0002BFF01F007FF94F844305DB2002D14DD9C
:1046D00004F1100903E06B1EDAB25DB26AB123691E
:1046E000484653B101F0CCF80028F4D001F05AF953
:1046F0006B1EDAB25DB2002AF1D1FF2384F8443098
:1047000001F00AFF00F0BCFF60E0036C002B80D0DA
:104710004FF0500383F31188BFF36F8FBFF34F8FB8
:10472000FEE7019B002B3FF479AF4FF0500383F37A
:104730001188BFF36F8FBFF34F8FFEE701F0CAFE02
:1047400094F845305DB2002D04DC11E06B1EDAB246
:104750005DB26AB1636A304653B101F091F8002846
:10476000F4D001F01FF96B1EDAB25DB2002AF1D16C
:10477000FF2384F8453001F0CFFE01F0ABFE94F842
:1047800044305DB2002D14DD04F1100903E06B1E0E
:10479000DAB25DB26AB12369484653B101F070F8EC
:1047A0000028F4D001F0FEF86B1EDAB25DB2002AE8
:1047B000F1D1FF2384F8443001F0AEFE00F060FF39
:1047C00001F088FEA36B53B101F0A6FE01F082FE5A
:1047D000A56B002D69D1019B002B7FF42FAF01F059
:1047E0009BFE002005B0BDE8F08304F1240901F030
:1047F00093FE0199484600F0B5FF01F06BFE94F876
:1048000045305DB2002D04DC11E06B1EDAB25DB202
:104810006AB1636A484653B101F032F80028F4D017
:1048200001F0C0F86B1EDAB25DB2002AF1D1FF23AD
:1048300084F8453001F070FE01F04CFE94F84430ED
:104840005DB2002D14DD04F1100903E06B1EDAB235
:104850005DB26AB12369484653B101F011F80028EE
:10486000F4D001F09FF86B1EDAB25DB2002AF1D1EC
:10487000FF2384F8443001F04FFE00F001FF0028D0
:10488000A4D14FF0E0234FF08052C3F8042DBFF3C2
:104890004F8FBFF36F8F99E74FF0500383F3118869
:1048A000BFF36F8FBFF34F8FFEE7226C52B1E16809
:1048B000A36811449942E16024BF2168E160384651
:1048C00002F01CF9013DA56323691BB901F024FE28
:1048D000012087E704F1100000F0D2FF0028F5D096
:1048E0004FF0E0234FF08052C3F8042DBFF34F8FF9
:1048F000BFF36F8FEAE700BF2DE9F04385B0019168
:1049000000285FD0036C044643B14FF0500383F39B
:104910001188BFF36F8FBFF34F8FFEE701F04EF8A2
:10492000002858D001F0D6FDA56B002D40F0558130
:10493000019B002B00F0458102A800F0E5FF2F4607
:10494000A84604F1240601F0E7FD00F091FE01F015
:10495000C1FD94F84430FF2B08BF84F8448094F8DC
:104960004530FF2B08BF84F8458001F0D5FD01A933
:1049700002A800F0D5FF002839D101F0ABFDA36BF0
:10498000002B00F0C08001F0C7FD01F0A3FD94F8FA
:1049900045305DB2002D40F3918004F1240905E01B
:1049A0006B1EDAB25DB2002A00F08880636A484666
:1049B000002B00F0838000F063FF0028F0D000F0AF
:1049C000F1FFEDE74FF0500383F31188BFF36F8FD2
:1049D000BFF34F8FFEE7019B002BA3D04FF0500396
:1049E00083F31188BFF36F8FBFF34F8FFEE701F0A2
:1049F00071FD94F845305DB2002D04DC11E06B1EB2
:104A0000DAB25DB26AB1636A304653B100F038FF82
:104A10000028F4D000F0C6FF6B1EDAB25DB2002AA7
:104A2000F1D1FF2384F8453001F076FD01F052FD0D
:104A300094F844305DB2002D14DD04F1100903E058
:104A40006B1EDAB25DB26AB12369484653B100F019
:104A500017FF0028F4D000F0A5FF6B1EDAB25DB29C
:104A6000002AF1D1FF2384F8443001F055FD00F015
:104A700007FE01F02FFDA36B43B901F04DFD002FA0
:104A800040F09480002005B0BDE8F08301F044FDC3
:104A900001F020FDA56B002D40F09F80019B002BB5
:104AA0007FF451AF002F00F08C804FF0500383F360
:104AB0001188BFF36F8FBFF34F8FFEE7FF2384F89A
:104AC000453001F029FD01F005FD94F844305DB258
:104AD000002D10DD04F1100903E06B1EDAB25DB2A7
:104AE0004AB12369484633B100F0CAFE0028F4D029
:104AF00000F058FFF1E7FF2384F8443001F00CFD8B
:104B000000F0BEFDC4E701F007FD2368002B5BD079
:104B100004F124090199484600F024FE01F0DAFC72
:104B200094F845305DB2002D04DC0DE06B1EDAB266
:104B30005DB24AB1636A484633B100F0A1FE002875
:104B4000F4D000F02FFFF1E7FF2384F8453001F0A7
:104B5000E3FC01F0BFFC94F844305DB2002D10DDA1
:104B600004F1100903E06B1EDAB25DB24AB12369A9
:104B7000484633B100F084FE0028F4D000F012FF64
:104B8000F1E7FF2384F8443001F0C6FC00F078FD23
:104B900000287FF47DAF4FF0E0234FF08052C3F840
:104BA000042DBFF34F8FBFF36F8F71E701F092FCBD
:104BB000616A19B1236B1968C1F13801A06800F06E
:104BC00091FF01F0A9FC5DE701F084FCA06800F012
:104BD00005FF074601F0A0FC9AE72368013DA563A5
:104BE0002BB123693BB901F097FC01204BE700F0A2
:104BF000C9FFA060F5E704F1100000F041FE0028B5
:104C0000F1D04FF0E0234FF08052C3F8042DBFF3F2
:104C10004F8FBFF36F8FE6E7A8B170B586680D467A
:104C2000044600F0C5FE864208D029462046FFF71C
:104C300063FE10B1E3680133E36070BDE3680120F7
:104C40000344E36070BD4FF0500383F31188BFF35A
:104C50006F8FBFF34F8FFEE72DE9F84310B30E4679
:104C60001746044691B101F067FDEFF311894FF04B
:104C7000500383F31188BFF36F8FBFF34F8FA56B82
:104C8000CDB9284689F31188BDE8F883036C002B61
:104C9000E9D04FF0500383F31188BFF36F8FBFF358
:104CA0004F8FFEE74FF0500383F31188BFF36F8FF0
:104CB000BFF34F8FFEE794F84480226C4FFA88F8D8
:104CC00052B1E168A36811449942E16024BF2168B0
:104CD000E160304601F012FF013DB8F1FF3FA563EE
:104CE00006D008F101035BB284F844300120C9E723
:104CF0002369002BFAD004F1100000F0C1FD002858
:104D0000F4D0002FF2D001233B60EFE70000000059
:104D1000F0B1214B5A68904225D0DA6890422CD0ED
:104D20005A6990422BD0DA6990422AD05A6A90424E
:104D300029D0DA6A90421ED05A6B904225D0DA6BA5
:104D4000904208BF07220FD090F846304BB1704711
:104D50004FF0500383F31188BFF36F8FBFF34F8F72
:104D6000FEE701F0D5BD00229FED097B03EBC203F6
:104D700083ED007BE8E70522F6E70122F4E7022253
:104D8000F2E70322F0E70422EEE70622ECE700BF99
:104D90000000000000000000C80C0020124B1A6840
:104DA0007AB19A6862B11A6992B19A6992B11A6A33
:104DB00092B19A6A92B11A6B92B19A6B92B17047A2
:104DC000012203EBC20C43F83210CCF80400704708
:104DD0000222F6E70322F4E70422F2E70522F0E7D5
:104DE0000622EEE70722ECE7C80C002070B5054666
:104DF0000E46144601F06EFB95F84430FF2B04BFBD
:104E0000002385F8443095F84530FF2B04BF00237C
:104E100085F8453001F080FBAB6B002B43D001F0EF
:104E200059FB95F845305CB2002C14DD05F12406E1
:104E300003E0631EDAB25CB26AB16B6A304653B10A
:104E400000F01EFD0028F4D000F0ACFD631EDAB2C5
:104E50005CB2002AF1D1FF2385F8453001F05CFBFC
:104E600001F038FB95F844305CB2002C14DD05F1FC
:104E7000100603E0631EDAB25CB26AB12B693046F9
:104E800053B100F0FDFC0028F4D000F08BFD631E50
:104E9000DAB25CB2002AF1D1FF2385F84430BDE8D4
:104EA000704001F039BB2246314605F1240000F084
:104EB0009DFCB4E72DE9F041054601F00BFB334AB8
:104EC000334E1368013313603368002B31D0314CFB
:104ED000E86A236833B3304F304A314913680133ED
:104EE00013606B640B68834238BF086000EB80007E
:104EF00007EB8000291DFEF735FF01F00DFB23684D
:104F000073B13268EB6AD26A9A4209D24FF0E02359
:104F10004FF08052C3F8042DBFF34F8FBFF36F8F54
:104F2000BDE8F08133681C4FDB6A834298BF35606F
:104F3000D2E735601368012B03D0E86A164F154C91
:104F4000CAE7154F3C4607F58C6820461434FEF737
:104F5000F9FEA045F9D1DFF86480124C4046FEF717
:104F6000F1FE2046FEF7EEFE0F48FEF7EBFE0F487F
:104F7000FEF7E8FE0E48FEF7E5FE0E4BE86AC3F8C2
:104F800000800D4B1C60034CA6E700BF2C0D0020D9
:104F900000120020200D0020A00D0020100D002088
:104FA000240D0020780D00205C0D0020480D00200D
:104FB000300D0020740D0020700D00208C0D00209D
:104FC0002DE9F0470A9CDDF824909600324607460A
:104FD0000D46206BA521984601F004FD236B043E8D
:104FE0001E4426F00706002D72D02B7884F834304A
:104FF000002B36D06B7884F8353093B3AB7884F8D7
:10500000363073B3EB7884F8373053B32B7984F8A8
:10501000383033B36B7984F8393013B3AB7984F813
:105020003A30F3B1EB7984F83B30D3B12B7A84F882
:105030003C30B3B16B7A84F83D3093B1AB7A84F8ED
:105040003E3073B1EB7A84F83F3053B12B7B84F858
:10505000403033B16B7B84F8413013B1AB7B84F8C3
:105060004230002384F84330089D372D28BF372570
:105070004FF0000AE562E564201DC4F850A0FEF779
:105080006DFEC5F1380504F11800FEF767FEA56155
:10509000C4F8A0A051464C222461646284F8A4A004
:1050A00004F1540001F09EFC0B4BA36503F168056D
:1050B000D033424639463046E565236601F0E0F9D3
:1050C0002060B9F1000F01D0C9F80040BDE8F087B9
:1050D00084F83450C8E700BF584F002080B5234DF6
:1050E000234F244EDFF890802B685BB301F0F2F978
:1050F000FB68DC68201DFEF75BFE3368013B336014
:105100002B68013B2B6001F007FA04F1540001F019
:1051100071FC94F8A53063B1012B22D0022BE3D0AF
:105120004FF0500383F31188BFF36F8FBFF34F8F9E
:10513000FEE7206B01F0ECFB204601F0E9FB2B6859
:10514000002BD3D1D8F80030012BCDD94FF0E0237C
:105150004FF08052C3F8042DBFF34F8FBFF36F8F12
:10516000C2E7204601F0D4FBBEE700BF440D00209B
:10517000480D00202C0D0020A00D00202DE9F04F3F
:10518000464B1E68013683B01E60002E3ED0444B55
:1051900001931B689E4246D3424FDFF818913B684B
:1051A000DFF814A11D68002D73D0DFF810810025F1
:1051B00020E0FEF7FDFDA36A04F118000BB1FEF735
:1051C000F7FDE36AD8F8002003EB830093425946C9
:1051D00009EB800088BFC8F80030FEF7C3FDDAF89D
:1051E00000203B68E16AD26A1B68914228BF012512
:1051F000002B4ED03B68DB68DC68636804F1040B6D
:105200009E425846D5D2019A136011E0254B1A6888
:1052100012680AB34FF0500383F31188BFF36F8F06
:10522000BFF34F8FFEE7DFF88C90DFF88CA00025EE
:10523000DAF800301C49DB6A03EB83039B0059F862
:1052400003200B68022A28BF0125002B0CBF28462B
:10525000012003B0BDE8F08F144A18681168196086
:10526000134910600A6801320A601A6812683AB974
:105270000B4B01931A464FF0FF331360134688E738
:105280001B68074ADB680192DB685B6813601346A2
:105290007FE7019A4FF0FF331360C9E7280D002024
:1052A0000C0D0020740D0020180D0020700D002042
:1052B000140D0020A00D002000120020240D00205D
:1052C0002DE9F84F424D01F005F92B68013B2B60A9
:1052D0002B68002B65D13F4B1B68002B61D03E4EE5
:1052E0003368002B70D03D4FDFF80091DFF800816C
:1052F000DFF800A1F368DC6804F1040B04F1180086
:10530000FEF756FD5846FEF753FDE36A3A6803EB95
:1053100083009342594609EB800088BF3B60FEF74B
:1053200021FDD8F80030E26ADB6A9A423FD30123BC
:10533000CAF800303368002BDCD1294B1A68126898
:10534000002A3CD01A68274BD268D26852681A608B
:10535000254E346894B1012706E0FFF70FFF08B12E
:10536000CAF80070013C08D02B68002BF5D03368D8
:10537000013C03F101033360F6D13460DAF8003008
:105380007BB14FF0E0234FF08052C3F8042DBFF300
:105390004F8FBFF36F8F012401F0BEF82046BDE8A8
:1053A000F88F002401F0B8F82046BDE8F88F336884
:1053B000002B9FD10A4B1A681268002AC2D1094BF0
:1053C0004FF0FF321A60C3E7DFF828A0C0E700BF44
:1053D000080D00202C0D00205C0D0020240D002065
:1053E000740D00200C0D00201C0D0020A00D0020CD
:1053F00000120020180D002030B587B00B9CC4B1FE
:105400000C9D6DB1A8250595059DA82D1AD04FF0CE
:10541000500383F31188BFF36F8FBFF34F8FFEE705
:105420004FF0500383F31188BFF36F8FBFF34F8F9B
:10543000FEE74FF0500383F31188BFF36F8FBFF384
:105440004F8FFEE70C9D2C63022485F8A54004AC29
:10545000CDE901450A9C0094059CFFF7B1FD0C982D
:10546000FFF728FD049807B030BD00BF2DE9F043D9
:10547000074685B0900015468846994601F08AF99E
:10548000F0B10446A82001F085F90646A8B10463EE
:10549000002486F8A5400D9C01940C9C02964B4676
:1054A0002A46414638460094FFF78AFD3046FFF70A
:1054B00001FD012005B0BDE8F083204601F028FA87
:1054C0004FF0FF3005B0BDE8F08300BFF8B550B92C
:1054D0004FF0E0234FF08052C3F8042DBFF34F8FFD
:1054E000BFF36F8FF8BD1E4D2B6843B14FF05003D3
:1054F00083F31188BFF36F8FBFF34F8FFEE72B68E5
:10550000013304462B60174B174E1F683068043078
:10551000FEF74EFC3368E4195C6010D3134B186837
:1055200031680431FEF72CFC2B68A3B94FF050030F
:1055300083F31188BFF36F8FBFF34F8FFEE70C4BE0
:10554000186831680431FEF71BFC0A4B1A68944254
:1055500038BF1C60E8E7FFF7B3FE0028B8D0F8BDFD
:10556000080D0020280D002000120020700D0020E2
:10557000740D00200C0D002030B58BB007AA00245C
:1055800006A905A8CDE90544FEF7BEFBDDE9063214
:10559000059DBBB16DB1A82109910999A8291AD01F
:1055A0004FF0500383F31188BFF36F8FBFF34F8F1A
:1055B000FEE74FF0500383F31188BFF36F8FBFF303
:1055C0004F8FFEE74FF0500383F31188BFF36F8FC7
:1055D000BFF34F8FFEE72B63022108AB85F8A510C0
:1055E00009981C491C480094CDE901352346FFF772
:1055F000E7FC2846FFF75EFC089B7BB100F0A4FEA9
:10560000012803460CD0013308D14FF0500383F337
:105610001188BFF36F8FBFF34F8FFEE70BB030BD24
:105620004FF0500282F31188BFF36F8FBFF34F8F9B
:105630000A4A0B4912680B4854320A600A490B4A5D
:105640004FF0FF3505600B6014600BB0BDE83040D3
:1056500000F0D2BF406C0008DD50000800120020AE
:10566000100000200C0D0020200D0020280D00202F
:10567000024A136801331360704700BF080D002011
:10568000064B1B6843B94FF0500383F31188BFF3F7
:105690006F8FBFF34F8FFEE7FFF712BE080D00209C
:1056A000014B1868704700BF280D0020054B1B6890
:1056B0000BB9FFF763BD044A136801330020136080
:1056C000704700BF080D00201C0D00201F4B1B68F9
:1056D0001BB11F4B01221A6070471D4A1D4910B4AF
:1056E0001D4C1360236803EB8302920098008A58D4
:1056F00042B913B3013B03EB8302980051F8222017
:10570000002AF6D0184401EB800C6246DCF8041045
:105710004968CCF804100832914208BF49680F4A22
:1057200008BFCCF80410C9681160236013680C4AE4
:105730005DF8044B5433136070474FF0500383F30C
:105740001188BFF36F8FBFF34F8FFEE7080D002066
:10575000180D0020A00D0020240D002000120020B4
:1057600010000020D0B170B51A4D0C4629681831D0
:10577000FEF706FB184B1E6828680430FEF718FB7E
:10578000631C14D02B68A4195C6017D3134B1868E2
:105790002968BDE870400431FEF7F2BA4FF05003BB
:1057A00083F31188BFF36F8FBFF34F8FFEE7296834
:1057B0000B48BDE870400431FEF7D4BA094B1868B5
:1057C00029680431FEF7DCFA074B1A68944238BFA7
:1057D0001C6070BD00120020280D0020700D0020FC
:1057E000300D0020740D00200C0D002030B370B57A
:1057F0001D4E0C46316815461831FEF7B3FA1B4BA7
:1058000085B91D6830680430FEF7D2FA3368641930
:105810005C601CD3164B18683168BDE870400431D9
:10582000FEF7AEBA1B6830680430FEF7C1FA316883
:105830001048BDE870400431FEF794BA4FF05003B1
:1058400083F31188BFF36F8FBFF34F8FFEE70A4BCF
:10585000186831680431FEF793FA084B1A689442CD
:1058600038BF1C6070BD00BF00120020280D002052
:10587000700D0020300D0020740D00200C0D002054
:1058800038B5C368DC684CB304F118052846FEF748
:105890008FFA174B1B6873B116482946FEF762FA58
:1058A000154BE26A1B68DB6A9A4283BF134B0120E7
:1058B0001860002038BD251D2846FEF779FA104AE9
:1058C000E36A11680F488B4288BF136003EB8303C0
:1058D000294600EB8300FEF745FAE1E74FF050035D
:1058E00083F31188BFF36F8FBFF34F8FFEE700BFC5
:1058F000080D00205C0D002000120020180D002073
:10590000240D0020A00D0020034A044B12681B68E0
:10591000C0E90023704700BF140D0020280D0020AF
:10592000F8B508B30D46B1B1044600F0D3FD2B68BD
:105930001A4A581C11682CD0DFF864C0D4E9006002
:10594000DCF80070BE4218D0884216D8012400F05E
:10595000E3FD2046F8BD4FF0500383F31188BFF3F9
:105960006F8FBFF34F8FFEE74FF0500383F3118823
:10597000BFF36F8FBFF34F8FFEE7A1EB000E7345B0
:1059800009D95B1ADCF80010126803442B60C4E9E3
:1059900000120024DBE700232B60D7E7280D00204E
:1059A000140D0020014B01221A607047180D0020D1
:1059B000014B1868704700BF00120020054B1B68A0
:1059C00033B1054B1868B0FA80F0400940007047C9
:1059D00001207047200D0020080D0020F8B5044676
:1059E000C8B11B4DC36A2A68D26A934214D2826935
:1059F000002A04DB2A68D26AC2F138028261154E9D
:105A0000626903EB830306EB83039A420CD02B6895
:105A1000DB6AE3620120F8BD2B68C06CDB6A984248
:105A20002CBF00200120F8BD271D3846FEF7C0F925
:105A30002A68094BD06A1A68E062904288BF1860F1
:105A400000EB8000394606EB8000FEF78BF9E1E7BA
:105A500000120020A00D0020240D002008B338B54E
:105A60001D4B1C68844208D04FF0500383F311880B
:105A7000BFF36F8FBFF34F8FFEE7236D43B1E16A32
:105A8000E26C013B9142236500D063B1002038BD38
:105A90004FF0500383F31188BFF36F8FBFF34F8F25
:105AA000FEE700207047251D2846FEF781F9E36CCC
:105AB0000A4AE362C3F13800A061106883420848D3
:105AC00088BF136003EB830300EB83002946FEF7D6
:105AD00049F9012038BD00BF00120020240D00202C
